:020000040800F2
:10700000781E0020C9710008D99D0008B18E0008C3
:10701000999C00089D75000879CC000800000000CC
:10702000000000000000000000000000F1A20008C5
:107030003177000800000000C9A20008F3A2000890
:10704000E3710008E3710008E3710008E3710008D0
:10705000E3710008E3710008E3710008E3710008C0
:10706000E3710008E3710008E37100080577000888
:10707000E3710008E3710008E3710008E3710008A0
:10708000E3710008E3710008E3710008E371000890
:10709000ADCB0008E3710008E371000855770008E4
:1070A000E3710008E3710008E3710008E371000870
:1070B0009DA40008E3710008E3710008E371000873
:1070C000E3710008E3710008E3710008E371000850
:1070D000E3710008E3710008E3710008E371000840
:1070E00035770008E3710008E371000800F002F84A
:1070F00000F05AF80AA090E8000C82448344AAF1F8
:107100000107DA4501D100F04FF8AFF2090EBAE8F5
:107110000F0013F0010F18BFFB1A43F001031847CB
:10712000EC5D00000C5E00000A444FF0000C10F80B
:10713000013B13F0070408BF10F8014B1D1108BFF5
:1071400010F8015B641E05D010F8016B641E01F895
:10715000016BF9D113F0080F1EBF10F8014BAD1CE5
:107160000C1B09D16D1E58BF01F801CBFAD505E003
:1071700014F8016B01F8016B6D1EF9D59142D6D35D
:10718000704700000023002400250026103A28BF85
:1071900078C1FBD8520728BF30C148BF0B60704789
:1071A0001FB51FBD10B510BD00F058F81146FFF710
:1071B000F7FF05F07FFD00F076F803B4FFF7F2FF6C
:1071C00003BC00F07DF800000948804709480047EB
:1071D000FEE7FEE7FEE7FEE7FEE7FEE7FEE7FEE787
:1071E000FEE7FEE704480549054A064B70470000E4
:1071F00099A40008ED70000878140020781E002083
:1072000078180020781800204FF0000200B51346CF
:1072100094469646203922BFA0E80C50A0E80C50B6
:10722000B1F12001BFF4F7AF090728BFA0E80C5067
:1072300048BF0CC05DF804EB890028BF40F8042B60
:1072400008BF704748BF20F8022B11F0804F18BFCD
:1072500000F8012B7047704770477047754600F083
:107260002BF8AE4605006946534620F007008546D8
:1072700018B020B5FFF7B6FFBDE820404FF000067C
:107280004FF000074FF000084FF0000B21F007010E
:10729000AC46ACE8C009ACE8C009ACE8C009ACE851
:1072A000C0098D46704710B50446AFF300802046F4
:1072B000BDE81040FFF781BF00487047141400205C
:1072C00001491820ABBEFEE726000200704770B5EA
:1072D000044600252068806800F0010018B320688B
:1072E000806820F001002168886000F097FD054665
:1072F00013E000F093FD401B02280ED9206880683F
:1073000000F0010048B1A06A40F01000A062E06AFD
:1073100040F00100E062012070BD2068806800F04C
:1073200001000028E5D10020F6E70000F0B587B0A5
:10733000002700BF914801F05DFE002009E000BF7A
:107340008E49C96C89B28E4A126811448C4A116008
:10735000401C42F210718842F1DB89480068B0FBA2
:10736000F1F087490860084600689630086000BF61
:107370000A20844908700124022183A000F0A6F9A4
:107380007E4801F037FEF3E07E48007800287CD08C
:10739000012804D002282BD0072877D18FE0774826
:1073A0004C30006880B27649096888420AD34FF0B1
:1073B0008040006840F001004FF0804108600A20E2
:1073C000704908706F48007888B96C4801F017FE62
:1073D0004FF08040006820F001004FF080410860CD
:1073E000002048626949086069490860BFE0BEE062
:1073F0004FF08040006840F001004FF0804108608D
:107400005AE05E484C30006880B25D4909688842A5
:107410003DD34FF08040406A5D4908604FF08040A6
:10742000006820F001004FF08041086000204862B1
:107430000A2054490870554800684EF66021B0FB98
:10744000F1F0524909684EF66022B1FBF2F302FBFB
:10745000131108444E49096802FB00104C490860AA
:1074600000204A4908600190029003900C2201A973
:107470004748006805F0F0FCC6B2314601A800F0AC
:1074800025F900204249086017E053E06EE03D48CE
:10749000007888B9394801F0B2FD4FF080400068AB
:1074A00020F001004FF08041086000204862374919
:1074B00008603749086000E0A3E700BF57E04FF0DD
:1074C0008040476A006820F001004FF0804108606A
:1074D000002048622D4800684EF66021B0FBF1F0B4
:1074E0002A4909684EF66022B1FBF2F302FB131140
:1074F00008442749096802FB00102549086000205C
:10750000224908600490059006900C2204A92048A6
:10751000006805F0A1FCC5B2294604A800F0D6F821
:1075200000201B490860322000F0CEFA01201549E6
:1075300008701CE04FF08040006820F001004FF020
:1075400080410860002048621049086010490860C6
:107550000A4801F054FD00BF0848C06C80B20D49D4
:10756000088001200C490870002400E000BF00BF23
:10757000002C7FF409AF07B0F0BD000000280140E7
:1075800004000020000000204F4B000010000020ED
:107590000C000020080000200100002000BFFEE7D2
:1075A0000346042B15D007DC7BB1012B0ED0022B38
:1075B0000DD0032B12D10BE0202B0BD0212B0AD0A6
:1075C000222B09D0232B09D107E008E007E006E0D1
:1075D00005E004E003E002E001E000E000BF00BFDE
:1075E000002070470020704710B50022044905486C
:1075F00003F0A9F80449034803F09EF8002010BDE9
:107600001C0B0020580200201C07002070B5044607
:107610000D4620784138152841D2DFE800F01640A9
:10762000344040400B402640401E1A404038402A1B
:10763000220F3C0004202149087034E007201F4934
:1076400008701F4801F04FFF2DE002201B49087011
:1076500029E001201949087025E003201749087026
:1076600021E00820154908701DE01020134908701A
:1076700019E0012013490870114801F034FF00207F
:107680000E4908700FE00D200C4908700BE0142023
:107690000A49087007E00E200849087003E0062038
:1076A0000649087000BF00BF2146074803F044F8B0
:1076B000054803F01DF8002070BD00000000002008
:1076C0000004004001000020580200202DE9F04194
:1076D00004460D4600260A48D0F8B872D7F81402BE
:1076E00010B10120BDE8F0812A462146044803F08C
:1076F0002AF8034803F0ABF806463046F2E70000EC
:107700005802002010B500BF07480068C0F34000D1
:1077100040B100BF02200449486000BF4021034837
:10772000FFF7D4FF10BD000000000240A8010020B8
:107730007047000010B54FF4806001F029FD30B1B2
:107740004FF4806001F090FC01200149087010BDE9
:107750001400002010B54FF4807001F019FD58B1ED
:107760004FF4807001F080FC4FF08040006840F0E2
:1077700001004FF08041086010BD72B600BFFEE707
:1077800070B50A480468001D0568001D0668344489
:1077900054B108220649204601F08CFB042204491A
:1077A0001031284601F086FB70BD0000E8F7FF1F8E
:1077B0004E00002038B5024600230020009000BF94
:1077C00092F82400012801D1022038BD012082F85E
:1077D000240000BF4868072812D21068406B0C795B
:1077E000641E04EB84051F24AC40A0430D796D1E7C
:1077F00005EB85050C68AC4020431468606327E006
:1078000048680D2812D21068006B0C79E41F04EB55
:1078100084051F24AC40A0430D79ED1F05EB8505C1
:107820000C68AC4020431468206311E01068C06A03
:107830000C790D3C04EB84051F24AC40A0430D796A
:107840000D3D05EB85050C68AC4020431468E062F3
:1078500008680A2812D31068C0680C780A3C04EB48
:1078600044050724AC40A0430D780A3D05EB4505CF
:107870008C68AC4020431468E0600FE01068006939
:107880000C7804EB44050724AC40A0430D7805EBCD
:1078900045058C68AC4020431468206108681028B6
:1078A00002D00868112827D1174C1068A0421ED1B9
:1078B0001068806800F40000F0B91068806840F437
:1078C00000001468A0600868102815D10F480068EF
:1078D0000F4CB0FBF4F000EB80004000009002E0A1
:1078E0000098401E009000980028F9D104E0906AAA
:1078F00040F020009062012300BF002082F82400A5
:1079000000BF184661E70000002401408400002009
:1079100040420F002DE9F0410446002700250026D3
:10792000A84614B90120BDE8F081A06810B1207DFF
:1079300000B100BFA06A30B90020E06284F82400E2
:10794000204600F089F82046FFF7C1FC0746A06AF0
:1079500000F01000002873D1002F71D1A06A20F42C
:10796000885040F00200A062E16960680843217B12
:1079700040EA41000643A068B0F5807F02D0A068CD
:10798000012802D14FF4807000E000200543207DE3
:10799000012811D1207B38B9A069401E4FF4006145
:1079A00041EA4030054307E0A06A40F02000A062B1
:1079B000E06A40F00100E0622068406820F469401D
:1079C0002843216848602068806821490840304386
:1079D00021688860A068B0F5807F02D0A068012887
:1079E00002D14FF4807000E00020B0F5807F03D119
:1079F000208A401E4FEA00582068C06A20F47000B8
:107A000040EA08002168C86220688068114908407F
:107A1000B04208D10020E062A06A20F0020040F0ED
:107A20000100A06211E0A06A20F0020040F0100006
:107A3000A062E06A40F00100E062012705E0FFE794
:107A4000A06A40F01000A062012738466BE70000F2
:107A5000FDF7E1FFFE0E1FFF10B586B004460020C3
:107A6000029003900490059014492068884222D126
:107A700000BF1348806940F480601149886108465E
:107A8000806900F48060019000BF00BF00BF08461D
:107A9000806940F0040088610846806900F00400B5
:107AA000019000BF00BF042002900320039002A9B0
:107AB000044800F01DF806B010BD00000028014089
:107AC000001002400008014070B5044600F0A6F91D
:107AD00006462546681C10B104480078054400BFDE
:107AE00000F09CF9801BA842FAD370BD80000020F2
:107AF0002DE9F8470346002294466EE14FF0010855
:107B000008FA02F4D1F8008008EA0400A0427DD10E
:107B1000DFF8DCA2D1F80480A8EB0A09D0453AD0FE
:107B200014DCB8F1030F50D009DCB8F1000F31D0EC
:107B3000B8F1010F1CD0B8F1020F49D120E0B8F123
:107B4000110F18D0B8F1120F42D11EE0B9F5881FFD
:107B500025D006DCB9F5803F20D0B9F5801F37D19C
:107B60001AE0B9F5001F18D0B9F5041F30D117E09D
:107B7000D1F80CC02DE0D1F80C8008F1040C28E0FD
:107B8000D1F80C8008F1080C23E0D1F80C8008F142
:107B90000C0C1EE000BF00BF00BF00BF00BF00BF55
:107BA000D1F80880B8F1000F02D14FF0040C0BE0BF
:107BB000D1F80880B8F1010F03D14FF0080C1C6117
:107BC00002E04FF0080C5C6103E04FF0000C00E0B5
:107BD00000BF00BFFF2801D8984601E003F1040868
:107BE0004646FF2802D84FEA820803E0A2F10808BF
:107BF0004FEA88084746D6F800804FF00F0909FA87
:107C000007F928EA09080CFA07F900E088E048EAD1
:107C10000908C6F80080D1F8048008F08058B8F14F
:107C2000805F7DD100BFDFF8CC81D8F8188048F0A4
:107C30000108DFF8C091C9F81880C846D8F8188044
:107C400008F00108CDF8008000BF00BF4FEAB93846
:107C50004FEA920958F829504FEA82784FEA18798A
:107C60004FF00F0808FA09F825EA0805DFF88881BF
:107C7000434502D14FF0000816E0DFF8808143450C
:107C800002D14FF001080FE0DFF87481434502D1C3
:107C90004FF0020808E0DFF86C81434502D14FF055
:107CA000030801E04FF004084FEA82794FEA19799E
:107CB00008FA09F848EA0505DFF84C814FEA92090D
:107CC00048F82950D1F8048008F48018B8F5801FCE
:107CD0000AD1DFF83881D8F8008048EA0008DFF8D8
:107CE0002C91C9F8008009E0DFF82081D8F80080E5
:107CF00028EA0008DFF81491C9F80080D1F8048060
:107D000008F40018B8F5001F10D1DFF8008108F161
:107D10000408D8F8008048EA0008DFF8F09000E096
:107D20005AE009F10409C9F800800DE0DFF8DC80B1
:107D300008F10408D8F8008028EA0008DFF8CC90A1
:107D400009F10409C9F80080D1F8048008F400386A
:107D5000B8F5003F0ED1DFF8B480A8F10408D8F8D8
:107D6000008048EA0008DFF8A490A9F10409C9F8E6
:107D700000800DE0DFF89480A8F10408D8F80080B6
:107D800028EA0008DFF88490A9F10409C9F8008006
:107D9000D1F8048008F48038B8F5803F0ED1DFF8C0
:107DA0006C80A8F10808D8F8008048EA0008DFF8DD
:107DB0005C90A9F10809C9F800800DE0DFF84C805B
:107DC000A8F10808D8F8008028EA0008DFF83C90FD
:107DD000A9F10809C9F80080521CD1F8008028FADE
:107DE00002F8B8F1000F7FF489AEBDE8F887000013
:107DF000000011100010024000080140000C01407A
:107E00000010014000140140080001400804014036
:107E10000AB1016101E00B04036170470148006889
:107E20007047000078000020034800680349097883
:107E30000844014908607047780000208000002055
:107E400010B50848006840F010000649086003209B
:107E500000F0CAF80F2000F007F800F02BF800201F
:107E600010BD00000020024070B504460E480078A6
:107E70004FF47A71B1FBF0F00C490968B1FBF0F5F1
:107E8000284600F0FBFF08B1012070BD102C07D27E
:107E900000222146501E00F069F80548046001E008
:107EA0000120F2E70020F0E780000020840000209D
:107EB0007C00002008B500BF1148806940F0010037
:107EC0000F4988610846806900F00100009000BFFA
:107ED00000BF00BF0846C06940F08050C861084636
:107EE000C06900F08050009000BF00BF00BF05498E
:107EF000486820F0E06040F00070486000BF08BDB6
:107F0000001002400000014010B50146084600285C
:107F100017DB00F01F0301229A400B4B440943F882
:107F2000242000BF00BF00BFBFF34F8F00BF00BFC2
:107F300000BF00BF00BF00BFBFF36F8F00BF00BF17
:107F400000BF00BF10BD000080E100E00146084610
:107F5000002809DB00F01F0301229A4043099B001F
:107F600003F1E023C3F8002100BF70472DE9F05F63
:107F700080460D461646002704F080FE0746394627
:107F80002A46334601F00700C0F1070ABAF1040F90
:107F900002D94FF0040A01E0C0F1070AD14600F10E
:107FA000040ABAF1070F02D24FF0000A01E0A0F173
:107FB000030AD4464FF0010A0AFA09FAAAF1010AA3
:107FC0000AEA020A0AFA0CFA4FF0010B0BFA0CFB50
:107FD000ABF1010B0BEA030B4AEA0B0421464046C6
:107FE00004F054FEBDE8F09F00BF00F00702064B0E
:107FF00019684FF6FF031940044B0B4343EA022173
:10800000014B196000BF70470CED00E00000FA055D
:1080100070B505460C4604F08000802808D104F0B5
:10802000070000EB800605F1100000EBC60105E03B
:1080300004EB840605F5A87000EBC6011AB9002010
:108040000873CB8004E0012008730B81180C488171
:10805000002070BD704770B504460D4605EB8503E2
:1080600004F1100101EBC3014A692946D4F8D40296
:1080700002F00EFF70BD70B504460D4605EB85039A
:1080800004F5A87101EBC3014A692946D4F8D4026A
:1080900002F07EFF70BD10B504460CB9012010BD82
:1080A000032084F89102206804F0BBFD08B1012090
:1080B000F5E7204600F01AFE002084F8910200BF88
:1080C000EDE770B504460E4606F0800080280AD120
:1080D00006F0070000EB800104F1100000EBC10581
:1080E0000120687009E006F0070000EB800104F54C
:1080F000A87000EBC1050020687006F0070028702A
:1081000000BF94F89002012801D1022070BD012027
:1081100084F8900200BF2946206803F01FFE00BFCC
:10812000002084F8900200BF00BFEFE770B504465E
:108130000E4606F00F002179884201D9012070BD5A
:1081400006F0800080280AD106F0070000EB8001CD
:1081500004F1100000EBC1050120687009E006F091
:10816000070000EB800104F5A87000EBC1050020BA
:1081700068700020A87006F00700287000BF94F80F
:108180009002012801D10220D9E7012084F8900251
:1081900000BF2946206803F03DFF00BF002084F89F
:1081A000900200BF00BFCAE72DE9F04105460C462A
:1081B000174607F48040002850D02868B0F85010C7
:1081C000207801EBC000801C296801F5806131F83E
:1081D0001000C0F30906A069B04203D3A069801B58
:1081E000A06101E00020A061A069A8B900BF2278C9
:1081F0005200296831F812104BF68F7201EA020022
:1082000080F4005040F4004141F0800123785B008D
:108210002A6822F8131000BF07F04000A8B100BF81
:1082200000BF22785200296831F8121048F68F7288
:1082300001EA020040F4004141F0C00123785B00F4
:108240002A6822F8131000BF00BF002E55D02289E3
:1082500061693346286804F0B5FC4EE02868B0F840
:108260005010207801EBC000801D296801F5806165
:1082700031F81000C0F30906A069B04203D3A06929
:10828000801BA06101E00020A061A069A8B900BF27
:1082900022785200296831F812104BF68F7201EAE9
:1082A000020080F4005040F4004141F08001237846
:1082B0005B002A6822F8131000BF07F04000A8B93D
:1082C00000BF00BF22785200296831F8121048F62A
:1082D0008F7201EA020040F4004141F0C0012378AE
:1082E0005B002A6822F8131000BF00BF2EB162891C
:1082F00061693346286804F065FC3046BDE8F081CA
:108300002DE9F04705460C46904608F0400000284D
:108310007ED02868B0F85010207801EBC000801C97
:10832000296801F5806131F81000C0F30907A069E0
:10833000B84203D9A069C01BA06101E00020A06180
:10834000A06900287ED100BF6078C0B900BF29684D
:108350002A68B2F8502011442278022303EBC202AB
:1083600001F5806303EB420000BF0288C2F30902FB
:108370000280028842F40042028000BF13E060786D
:10838000012810D100BF28682A68B2F85020104494
:108390002278022303EBC20200F5806303EB420163
:1083A00000220A8000BF00BF00BF29686078F8B9CA
:1083B00000BF2B68D5F800C0BCF850C0634494F8E7
:1083C00000C04FF0060909EBCC0C03F5806909EBFE
:1083D0004C0000BFB0F800C0CCF3090CA0F800C0FE
:1083E000B0F800C04CF4004CA0F800C000BF12E090
:1083F000607801280FD12868B0F850000144207837
:10840000062303EBC00001F5806303EB400200E0AC
:10841000B7E00020108000BF21782846FFF71BFE40
:1084200008F48040002816D000BF00BF2278520018
:10843000296831F8121048F68F7201EA020040F400
:10844000004100E008E041F4814123785B002A68A4
:1084500022F8131000BFD7E108F48040A8B100BF94
:1084600000BF22785200296831F8121048F68F7246
:1084700001EA020040F4004141F4814123785B00AD
:108480002A6822F8131000BF00BF94F824000128C6
:10849000E1D1606938446061E0693844E061216994
:1084A000206A884204D32669206A801B20620BE080
:1084B000206A20B93E46002084F8240004E0002011
:1084C00084F82400266A206200BF6078E8BB00BF01
:1084D0002A682968B1F850100A442178022303EB76
:1084E000C10102F5806303EB4101084600BF038828
:1084F000C3F3090303803E2E10D900BF710906F0B3
:108500001F0303B9491E03884FF4004C4CEA812C29
:108510001FFA8CFC43EA0C03038014E026B903889D
:1085200043F4004303800EE000BF710806F001032E
:1085300003B1491C03884FF6FF7C0CEA812C43EA07
:108540000C03038000BF00BF13E0FFE76078012841
:108550000FD100BF28682A68B2F850201044227852
:10856000022303EBC20200F5806303EB42010E809D
:1085700000BF00BFB3B222896169286804F05CFBC8
:1085800042E12868B0F85010207801EBC000801D4F
:10859000296801F5806131F81000C0F30907A0696E
:1085A000B84203D3A069C01BA06101E00020A06114
:1085B000A06900287ED100BF6078C0B900BF2968DB
:1085C0002A68B2F8502011442278022303EBC20239
:1085D00001F5806303EB420000BF0288C2F3090289
:1085E0000280028842F40042028000BF13E06078FB
:1085F000012810D100BF28682A68B2F85020104422
:108600002278022303EBC20200F5806303EB4201F0
:1086100000220A8000BF00BF00BF29686078F8B957
:1086200000BF2B68D5F800C0BCF850C0634494F874
:1086300000C04FF0060909EBCC0C03F5806909EB8B
:108640004C0000BFB0F800C0CCF3090CA0F800C08B
:10865000B0F800C04CF4004CA0F800C000BF10E01F
:10866000607801280DD12868B0F8500001442078C6
:10867000062303EBC00001F5806303EB40020020FA
:10868000108000BF21782846FFF7E5FC08F4804001
:10869000002816D100BF00BF22785200296831F8A7
:1086A000121048F68F7201EA020040F4004141F4D2
:1086B000814100E006E023785B002A6822F813106D
:1086C00000BFA1E008F48040A8B900BF00BF227835
:1086D0005200296831F8121048F68F7201EA020040
:1086E00040F4004141F4814123785B002A6822F87C
:1086F000131000BF00BF94F8240001287ED16069E8
:1087000038446061E0693844E0612169206A884248
:1087100004D32669206A801B20620BE0206A20B9FE
:108720003E46002084F8240004E0266A00202062EF
:1087300084F8240000BF2A68607870BB00BFD5F8B9
:1087400000C02968B1F850108C4421784FF0060918
:1087500009EBC1010CF5806909EB4101084600BF36
:10876000B0F80090C9F30909A0F800903E2E15D981
:1087700000BF710906F01F09B9F1000F00D1491EB1
:10878000B0F800904FF4004A4AEA812A1FFA8AFAA8
:1087900049EA0A09A0F800901BE01CE036B9B0F8DD
:1087A000009049F40049A0F8009012E000BF710861
:1087B00006F00109B9F1000F00D0491CB0F8009093
:1087C0004FF6FF7A0AEA812A49EA0A09A0F80090DE
:1087D00000BF00BF0FE0607801280CD12868B0F816
:1087E000500002442078062101EBC00002F58061B0
:1087F00001EB40031E8000BFB3B200E004E06289D9
:108800006169286804F018FA00BF227852002968CC
:1088100031F8121048F6BF7201EA020080F0100031
:1088200080F0200040F4004141F0800223785B009A
:10883000296821F8132000BF0020BDE8F087024618
:1088400001F0070000EB800302F5A87000EBC30005
:10885000C06970472DE9F04705460E4690461F4611
:108860004FF0000906F0800080280AD106F00700CA
:1088700000EB800105F1100000EBC10401206070E5
:1088800009E006F0070000EB800105F5A87000EB99
:10889000C1040020607006F007002070C4F810804A
:1088A000E770022F01D10020207100BF95F89002DF
:1088B000012802D10220BDE8F087012085F890024E
:1088C00000BF2146286802F0EDFF00BF002085F8B8
:1088D000900200BF4846EEE72DE9F04105460E46FE
:1088E0001746984606F0070000EB800105F5A870D2
:1088F00000EBC1046761C4F818800020E06160707B
:1089000006F0070020702146286803F01EFC0020B6
:10891000BDE8F08170B504460D4605F007002179E9
:10892000884201D9012070BD05F0800080280AD15D
:1089300005F0070000EB800104F1100000EBC10618
:108940000120707007E005EB850104F5A87000EBCD
:10895000C106002070700120B07005F00700307073
:1089600000BF94F89002012801D10220DBE701202A
:1089700084F8900200BF3146206803F0B8FB05F090
:10898000070020B904F52671206803F040FB00BF02
:10899000002084F8900200BF00BFC4E72DE9F04139
:1089A00005460E4690461F4606F0070000EB800184
:1089B00005F1100000EBC104C4F81480A761012088
:1089C00084F8240027620020E0610120607006F036
:1089D000070020702146286803F0B7FB0020BDE89F
:1089E000F0817FB50446206804F0E8F8064606F4F6
:1089F0000040B0F5004F03D1204601F0EFF97FBDF4
:108A000006F48060B0F5806F10D12068B0F84400A3
:108A10004FF6FF3108402168A1F84400204600F0DD
:108A20009BF90021204600F0B7F9E8E706F4804002
:108A3000B0F5804F09D12068B0F844004BF6FF71C3
:108A400008402168A1F84400D9E706F40050B0F5C9
:108A5000005F09D12068B0F844004DF6FF7108406E
:108A60002168A1F84400CAE706F48050B0F5805FA1
:108A70001ED12068B0F840004FF6FB710840216815
:108A8000A1F840002068B0F840004FF6F7710840A8
:108A90002168A1F84000204600F070F92068B0F885
:108AA00044004EF6FF7108402168A1F84400A6E793
:108AB00006F40060B0F5006F56D1002507E06900AC
:108AC000206830F811002DF81500681CC5B2082D7B
:108AD000F5D32068B0F8400040F001002168A1F80B
:108AE00040002068B0F840004FF6FE710840216851
:108AF000A1F8400000BF2068B0F8440000F4806096
:108B00000028F8D02068B0F844004FF6FF31084044
:108B10002168A1F84400002507E03DF815006A002F
:108B2000216821F81200681CC5B2082DF5D3206811
:108B3000B0F8400040F008002168A1F8400020682B
:108B4000B0F844004FF2FF7108402168A1F84400DA
:108B50002068B0F8400040F004002168A1F840000F
:108B6000204600F079F94AE706F40070B0F5007F7E
:108B70000CD12068B0F844004FF6FF51084021683E
:108B8000A1F84400204600F000F938E706F48070B0
:108B9000B0F5807F09D12068B0F844004FF6FF613E
:108BA00008402168A1F8440029E700BF27E770B515
:108BB00004460CB9012070BD94F8910228B9002038
:108BC00084F89002204600F0A5F8032084F8910272
:108BD00000216171206803F010FA94E80F0003F09F
:108BE000B9F820B1022084F891020120E3E70021C6
:108BF000206804F00CF820B1022084F891020120D2
:108C0000D9E700252AE0012105EB850204F11000D7
:108C100000EBC200417005EB850104F1100000F883
:108C20003150002105EB850200EBC200C17005EB5D
:108C3000850204F1100000EBC200016105EB850222
:108C400004F1100000EBC200416105EB850204F164
:108C5000100000EBC2008161681CC5B22079A842F7
:108C6000D1DC00252AE0002105EB850204F5A8707F
:108C700000EBC200417005EB850104F5A87000F817
:108C80003150002105EB850200EBC200C17005EBFD
:108C9000850204F5A87000EBC200016105EB8502B6
:108CA00004F5A87000EBC200416105EB850204F5F4
:108CB000A87000EBC2008161681CC5B22079A8428F
:108CC000D1DC94E80F0003F08DF920B1022084F884
:108CD000910201206FE700206073012084F8910267
:108CE000206803F07CF9002065E7000010B5044619
:108CF00006492068884208D10548C06920F4000070
:108D00000349C8611420FFF7FFF810BD005C004064
:108D10000010024038B504460D492068884215D13C
:108D200000BF0C48C06940F400000A49C861084609
:108D3000C06900F40000009000BF00BF002211468F
:108D40001420FFF713F91420FFF700F938BD0000D5
:108D5000005C00400010024070B504460125A07977
:108D6000022801D0FEF709FD2946D4F8D40202F00A
:108D700053FAD4F8D40202F005FA70BD10B50446D7
:108D8000D4F8D40202F02CFA10BD10B50446D4F881
:108D9000D40202F030FA10BD70B504460D4600BF93
:108DA00094F89002012801D1022070BD012084F8BE
:108DB000900200BF65732946206803F02BFF00BFB7
:108DC000002084F8900200BF00BFEEE710B5044613
:108DD00004F52671D4F8D40202F035FA10BD10B5AE
:108DE000044600BF94F89002012801D1022010BD72
:108DF000012084F8900200BF206803F0CEFE01211C
:108E00002046FFF727F9206803F0E6F800BF0020AE
:108E100084F8900200BF00BFE9E710B5044600BF28
:108E200094F89002012801D1022010BD012084F89D
:108E3000900200BF206803F0E0F800212046FFF711
:108E400009F9206803F0CBF800BF002084F89002F5
:108E500000BF00BFE9E7000010B50446D4F8D40213
:108E600002F059FAA07A28B10348006840F00600E1
:108E70000149086010BD000010ED00E070B5044627
:108E80002546681EB0F1807F01D301200FE0681EE7
:108E90004FF0E02148610F214FF0FF3003F0F6FE64
:108EA00000204FF0E021886107200861002070BD9C
:108EB00000BFFEE730B50B46002100BF16E00A24D4
:108EC000B4EB107F05D9302404EB107403F8114083
:108ED00005E0412404EB10740A3C03F81140000142
:108EE00000254C00641C1D554C1CE1B29142E6DB90
:108EF00030BD00002DE9F04104460D4600260D4826
:108F000000F03EF807460C4800F03AF807436FB906
:108F1000286830B1606820F47020296808436060D8
:108F200005E0606820F47020606000E001263046B3
:108F3000BDE8F0810024014000280140816841F033
:108F400001018160704770B504460D460026204639
:108F500000F016F860B9606820F480706968084312
:108F60006060A06820F4006029680843A06000E009
:108F70000126304670BD01468868C0F38000704706
:108F80000146886800F001007047000070B5054692
:108F90000C460026606800B100BF2846FFF7F0FFCE
:108FA00010BB606840B1D4E901010843696821F44D
:108FB00068410843686005E0686820F468406168BB
:108FC00008436860E1682068084321690843A9688C
:108FD000074A11400843A8606068E96A21F47001FB
:108FE0000143E96200BF00E00126304670BD000089
:108FF000FDFEF1FF816841F4A00181607047816846
:1090000021F4801181607047816841F00401816022
:109010007047000008B50549C9690143034AD16199
:109020001146C9690140009100BF08BD001002400F
:1090300008B5054989690143034A91611146896967
:109040000140009100BF08BD0010024008B505496D
:1090500089690143034A9161114689690140009180
:1090600000BF08BD001002400149086070470000C1
:1090700014040140024909688143014A11607047A4
:1090800004040140024909688143014A11607047A4
:1090900000040140024909680143014A1160704718
:1090A00004040140024909680143014A1160704704
:1090B0000C040140024909680143014A11607047EC
:1090C00000040140024909680143014A11607047E8
:1090D0000804014070B504460025207900284DD0D1
:1090E0002068002850D0607920B1012809D00228DA
:1090F00015D10DE02068FFF7BDFF2068FFF7DAFF0C
:109100000FE02068FFF7BEFF2068FFF7C3FF08E00D
:109110002068FFF7CFFF2068FFF7BCFF01E00125C3
:1091200000BF00BFA07940B3A079012804D0022875
:109130000DD003281FD117E0206814490968814326
:10914000124A116000BF2068FFF7BCFF15E02068DD
:109150000E49091F096881430C4A121F116000BFA4
:109160002068FFF79FFF08E02068FFF7ABFF20684B
:10917000FFF798FF01E0012500BF05E02068FFF739
:1091800081FF2068FFF776FF284670BD0C04014080
:109190000146044800680840884201D10120704718
:1091A0000020FCE71404014010B5094ACBB252F884
:1091B000232022EA11420B0C93FAA3F3B3FA83F3B0
:1091C00000FA03F31A43024BCCB243F8242010BD3B
:1091D000080001402DE9F04102460B461868C0F333
:1091E0000F2595FAA5F0B0FA80F480E00120A040A8
:1091F000284000287AD0082C04D240F2011000FA4E
:1092000004F106E0A4F108004FF00116864046F094
:109210008061586808280ED11869D66826EA112698
:109220000F0A97FAA7F7B7FA87F700FA07F73E434E
:10923000D66000BF00BF586802EB116691FAA1FC2E
:10924000BCFA8CFC4FEA8C084FF00F0C0CFA08FCAF
:10925000376827EA0C0791FAA1FCBCFA8CFC4FEAAC
:109260008C0C00FA0CFC47EA0C07376000BF58680A
:10927000012802D05868092838D1986802EB116695
:1092800091FAA1FCBCFA8CFC4FEA8C084FF0030C5D
:109290000CFA08FC376827EA0C0791FAA1FCBCFA23
:1092A0008CFC4FEA8C0C00FA0CFC47EA0C07376088
:1092B00000BFD86802EB116691FAA1FCBCFA8CFCE5
:1092C0004FEA8C084FF0040C0CFA08FC376827EAC8
:1092D0000C0791FAA1FCBCFA8CFC4FEA8C0C00FA4A
:1092E0000CFC47EA0C07376000BF00BF641C25FA7E
:1092F00004F000287FF47AAFBDE8F08170B500EB90
:10930000116391FAA1F5B5FA85F5AE000F25B540C8
:109310001C68AC4391FAA1F5B5FA85F5AD0002FAE7
:1093200005F52C431C6070BD416821F008014160C7
:109330007047416841F0100141607047416821F079
:10934000100141607047F8B504464FF47A70009000
:1093500000250026204600F08CF806460DE000F0BF
:10936000B0F8012802D10098401E0090204600F07D
:1093700080F80646009800B90125009808B1012E32
:10938000EDD12046FFF7D5FF2846F8BDF8B50446D5
:109390004FF47A700090002500262046FFF7CEFF9C
:1093A000204600F066F806460DE000F08AF8012835
:1093B00002D10098401E0090204600F05AF8064660
:1093C000009800B90125009808B1012EEDD128467A
:1093D000F8BD000070B504460D460126204600F099
:1093E0004DF801283CD02046FFF7ADFF012837D0CB
:1093F00000BF606820F00200606000BF00BF6068CE
:1094000020F00400606000BF00BF606820F0010031
:10941000606000BF686840B100BF1248006820F07B
:1094200001001049086000BF00BF68680D4930396D
:10943000C96A21F4607101430A4A303AD16200BF1F
:109440002868A16821F00F0141EA1041A160E1689C
:1094500060F30F01E16000BF2046FFF797FF002691
:10946000304670BD306C004001464868C0F3C00013
:10947000704701464868C0F340107047F8B504468D
:109480004FF47A700090002500262046FFF74CFF2D
:109490002046FFF7E9FF06460DE000F012F801282C
:1094A00002D10098401E00902046FFF7DDFF0646DF
:1094B000009800B90125009808B1002EEDD128468A
:1094C000F8BD4FF0E0200069C0F300407047000095
:1094D000014908607047000084000020016821F005
:1094E000800101607047016821F00101016070474F
:1094F000816821F0800181607047000010B502464C
:1095000013681C48824208D0B2F1804F05D01A4837
:10951000824202D01948824204D123F070004C6884
:1095200040EA04031348824208D0B2F1804F05D0CC
:109530001148824202D01148824204D123F4407083
:10954000CC6840EA040313608868D06200BF0888D2
:10955000906200BF0748824203D10869106300BFD0
:1095600000BF00BF506940F00100506100BF002003
:1095700010BD0000002C0140000400400008004025
:10958000826844F207039A430A4382607047426844
:1095900022F070020A4342607047000070B592B03A
:1095A00000200E900F901090119000BFA748806986
:1095B00040F00400A54988610846806900F0040075
:1095C000009000BF00BF88140E9001200F90022071
:1095D000109011900EA99E48FEF78AFA00224FF4CF
:1095E00080519B48FEF714FC6420FEF76DFA0020C2
:1095F0000C900D900B90142106A8FDF705FE142188
:1096000001A8FDF701FE4FF40070FFF71FFD0820D1
:10961000FFF71CFD40F2022001900020029001A9FA
:109620008C48FFF7D7FD8C48012100224B1E8B4C44
:10963000E35CC35844F21004A34313434C1E874D0C
:109640002C5D035100BF4FF440524B1E2C46E35C8F
:10965000C35823F4405313434C1E2C5D035100BFE9
:1096600020224B1E2C46E35CC35823F020031343F7
:109670004C1E2C5D035100BF00224B1E2C46E35CA8
:10968000C35823F0400313434C1E2C5D035100BF0D
:1096900080224B1E2C46E35CC35823F08003134307
:1096A0004C1E2C5D035100BF82154B1E2C46E35C03
:1096B000C35823F4407313434C1E2C5D035100BF69
:1096C00002154B1E2C46E35CC35823F4406313433E
:1096D0004C1E2C5D035100BF014601226048531E01
:1096E0002C46E35C0B44986000BF084601215D4AAC
:1096F0004B1EE35C0344DA6000BF20224B1EE35C98
:1097000003445B686FF30F0313434C1E2C5D04444A
:10971000636000BF00BF4A1E2B469A5C825842F02D
:1097200002034A1E2C46A25C835000BF00200C900E
:109730000D900CA94A484C38FFF705FC00200B900F
:109740000BA947484C38FFF7D5FB4FF40020069093
:1097500000200790089009904FF480700A9006A9A5
:109760003F484C38FFF712FC3D494C3948153E4AFA
:1097700000F440744FF4407595FAA5F5B5FA85F5F7
:10978000EC4001F12C0505EB84031C6800F01F067A
:109790001F25B540AC4302F01F0500F01F06B54081
:1097A0002C431C6000BF0A462F48002300F00074C1
:1097B0004FF0007595FAA5F5B5FA85F5EC4002F184
:1097C0000C0505EB84010C6800F0F8754FF0F87695
:1097D00096FAA6F6B6FA86F6F5400726AE40B443EA
:1097E00000F0F8754FF0F87696FAA6F6B6FA86F617
:1097F000F54003FA05F52C430C6000BF4FF48010D0
:10980000114689680143916000BF1046FFF796FB3F
:10981000114801214A1E114B9A5C825842F0010303
:109820004A1E0E4CA25C835000BF0A20FEF74CF982
:109830000B484C38FFF7E8FB00BF09484C38FFF7EE
:109840009AFB0028F9D112B070BD00000010024050
:1098500000080140000C014000000240CACE000890
:109860004C240140A80100200900B0030EB50020DF
:109870000090019002901948194908600021184889
:10988000816001210173002101754FF46021C161E4
:10989000002013494860012111480161FEF73AF8A0
:1098A00008B1FDF76AFF022000900120019000201E
:1098B000029069460A48FDF77DFF08B1FDF75DFF9C
:1098C0000648FFF73BFB0548FFF79EFB00BF034838
:1098D000FFF751FB0028FAD10EBD0000002801401F
:1098E000280200202DE9F84101202F494969014350
:1098F0002D4A5161114649690140009100BF00BFE6
:109900000B212A4B1B68C3F3022000242546034683
:10991000C3F1070CBCF1040F02D94FF0040C01E0B5
:10992000C3F1070C674603F1040CBCF1070F02D228
:109930004FF0000C01E0A3F1030C66464FF0010C60
:109940000CFA07FCACF1010C0CEA040C0CFA06FC56
:109950004FF0010808FA06F8A8F1010808EA05081E
:109960004CEA080200BF002904DB1007030E104870
:10997000435407E01007040E0C480C3001F00F03AD
:109980001B1FC45400BF0B20002809DB00F01F027E
:10999000012191404209920002F1E022C2F8001137
:1099A00000BFBDE8F8810000001002400CED00E0AF
:1099B00000E400E01CB50020009001902020FFF79B
:1099C00037FB0420FFF734FB0820FFF731FB184971
:1099D0000020FFF7E9FB17490020FFF7E5FB4FF4F4
:1099E0008070009001208DF8040000208DF80500A3
:1099F00002208DF806006846FFF76CFB4FF480608C
:109A0000009001208DF8040000208DF80500022050
:109A10008DF806006846FFF75DFB042206490748FB
:109A2000FFF76CFC042206490448FFF767FC1CBDE5
:109A300002000F000200000F0100010400080140B5
:109A4000040004040EB500200190029000BF1A48E3
:109A5000006840F480701849086000BF4FF0006053
:109A60001649C9690143154AD1611146C9690140C6
:109A7000009100BF00BF00BF1046006A40F40040E4
:109A80001146086200BF4FF0FF30019001A90C4859
:109A9000FFF7A0FC4FF0FF300949896821F00F0162
:109AA00041EA1041064A91601146C96860F30F010E
:109AB000D16000BF0EBD00000070004000100240E9
:109AC0000028004010B586B0142101A8FDF79CFBCA
:109AD0000120FFF79FFA4720ADF804000020029014
:109AE0004EF65F2003900020049001A94FF08040C3
:109AF000FFF704FD4FF08040FFF7F0FC00214FF02E
:109B00008040FFF73DFD20214806FFF740FD4FF064
:109B10008040FFF7EDFC4FF08040006820F010001F
:109B20004FF0804108600846006820F0600008603F
:109B30006FF0010008611C20002809DB00F01F0203
:109B4000012191404209920002F1E022C2F8001185
:109B500000BF1C200021002804DB0A07130E0B4A5B
:109B6000135406E00A07140E094A00F00F031B1FE6
:109B7000D45400BF00BF4FF08040C06840F00100E7
:109B80004FF08041C86000BF06B010BD00E400E0A7
:109B900018ED00E000B585B014216846FDF734FBF0
:109BA0000220FFF737FA0020ADF8000001904720AF
:109BB00002900020039069460E48FFF79FFC00BF0B
:109BC0000C48006840F080000A49086000BF00218E
:109BD0000848FFF7D5FC20210648FFF7D8FC00BF56
:109BE0000448806840F080000249886000BF05B0EA
:109BF00000BD00000004004000B585B01421684697
:109C0000FDF702FB0420FFF705FA4720ADF800003E
:109C1000002001904EF65F200290002003906946DC
:109C20000948FFF76BFC0848FFF758FC002106487D
:109C3000FFF7A6FC20210448FFF7A9FC0248FFF724
:109C400057FC05B000BD00000008004010B5002220
:109C50000D490E4801F0DDF808B1FDF78EFD0C4905
:109C60000A4801F08EFB08B1FDF787FD0949074856
:109C700000F05BFD08B1FDF780FD044801F04AFCEF
:109C800008B1FDF77AFD10BD180000205802002031
:109C9000980000206800002000BFFEE73EB51720B6
:109CA000002809DB00F01F020121914042099200C7
:109CB00002F1E022C2F8001100BF4FF080400068BE
:109CC00020F001004FF080410860002048623D49CB
:109CD00008603D49086002213CA0FDF7F7FC0A201E
:109CE0003B4908706AE03A480078072838D14FF0BD
:109CF0008040406A344908604FF08040006820F09E
:109D000001004FF080410860002048622D48006843
:109D10004EF66021B0FBF1F02A4909684EF6602248
:109D2000B1FBF2F302FB131108442749096802FB57
:109D30000010254908600020224908600090019029
:109D400002900C2269462048006803F085F8C4B2EE
:109D500021466846FDF7BAFC0A201D4908702DE02F
:109D60001B48007850BB1720002817DB00F01F02AB
:109D700001219140174A430942F8231000BF00BF58
:109D800000BFBFF34F8F00BF00BF00BF00BF00BFC9
:109D900000BFBFF36F8F00BF00BF00BF00BF4FF019
:109DA0008040006820F001004FF0804108600020F2
:109DB0004862044908600449086000E093E700BF76
:109DC0003EBD0000100000200C0000204F4B0000A2
:109DD0000000002080E100E000BFFEE72DE9F05F19
:109DE000054667E22868B0F844A00AF00F07002F84
:109DF0007ED10AF0100098BB00BF2968098848F698
:109E00000F7201EA020040F400412A68118000BF8D
:109E100005F110042868B0F85010207801EBC0005C
:109E2000801C296801F5806131F81000C0F3090039
:109E3000E061E16960690844606100212846FEF73D
:109E40000AF9687B0028CCD0A0690028C9D1687BBA
:109E500040F080002968A1F84C000020687329E2D6
:109E6000FFE705F5A8742868068806F4006030B39B
:109E70002868B0F85010207801EBC000801D2968D8
:109E800001F5806131F81000C0F30900E061A18B99
:109E90008BB2E28805F52671286802F093FE00BFB8
:109EA0002968098840F68F7201EA020040F08001BB
:109EB0002A68118000BF2846FEF788FFFAE106F401
:109EC000004000288DD000BF2968098840F68F72B5
:109ED00001EA020040F080012A68118000BF286872
:109EE000B0F85010207801EBC000801D296800E018
:109EF00076E001F5806131F81000C0F30900E061FF
:109F0000E06990B1606980B1B4F81CC01FFA8CF3AD
:109F1000E2886169286802F055FEE16960690844D9
:109F2000606100212846FEF7A6F82868068806F436
:109F30000060002893D106F44050B0F5405F8ED009
:109F400000BF2A682968B1F850100A4402F20C4197
:109F5000084600BF0388C3F30903038023693E2B2F
:109F600012D900BF23695909237C03F01F0303B9E9
:109F7000491E03884FF4004C4CEA812C1FFA8CFCDC
:109F800043EA0C03038017E0236923B9038843F4F1
:109F90000043038010E000BF23695908237C03F0CD
:109FA000010303B1491C03884FF6FF7C0CEA812CA6
:109FB00043EA0C03038000BF00BF00BF00BF296855
:109FC00009884BF68F7201EA020080F4805080F419
:109FD000005040F4004141F080012A68118069E19D
:109FE0007900286830F8116006F4004000286FD02E
:109FF00000BF7A00296831F8121040F68F7201EA2A
:10A00000020040F080017B002A6822F8131000BF94
:10A0100007EB870105F5A87000EBC104207BB8B9F8
:10A020002868B0F85010207801EBC000801D296826
:10A0300001F5806131F81000C0F30908B8F1000F94
:10A040005ED0E28861694346286802F0BBFD57E0B4
:10A05000E078022806D1324621462846FEF7A4F8C9
:10A0600080464DE000BF00BF22785200296831F8D9
:10A07000121048F68F7201EA020040F4004141F0EC
:10A08000C00123785B002A6822F8131000BF00BFCC
:10A0900021784900286830F8110000F48040C0B1F0
:10A0A0002868B0F85010207801EBC000801C2968A7
:10A0B00001F5806131F81000C0F30908B8F1000F14
:10A0C0001ED0228961694346286802F07BFD17E0B3
:10A0D0002AE02868B0F85010207801EBC000801DFD
:10A0E000296801F5806131F81000C0F30908B8F162
:10A0F000000F05D0628961694346286802F062FD5D
:10A10000E0694044E061606940446061A06910B169
:10A110002069404504D921782846FDF7ACFF03E0CB
:10A120002146286802F011F806F08000002876D059
:10A1300007EB870105F1100000EBC10400BF7A00B6
:10A14000296831F8121048F60F7201EA020040F453
:10A1500000417B002A6822F8131000BFE078012834
:10A1600076D10020A061207B00286BD006F0400053
:10A1700080B300BF6078C0B900BF29682A68B2F810
:10A18000502011442278022303EBC20201F58063C0
:10A1900003EB420000BF0288C2F30902028002887A
:10A1A00042F40042028000BF13E06078012810D121
:10A1B00000BF28682A68B2F8502010442278022391
:10A1C00003EBC20200F5806303EB420100220A8028
:10A1D00000BF37E0FFE700BF2968607800BB00BF21
:10A1E0002B68D5F800C0BCF850C0634494F800C098
:10A1F0004FF0060B0BEBCC0C03F5806B0BEB4C001C
:10A2000000BFB0F800C0CCF3090CA0F800C0B0F853
:10A2100000C04CF4004CA0F800C000BF11E049E0C1
:10A22000607801280DD12868B0F8500001442078EA
:10A23000062303EBC00001F5806303EB400200201E
:10A24000108000BF21782846FDF705FF32E0FFE7C8
:10A2500006F4807048BB2868B0F85010207801EBF5
:10A26000C000801C296801F5806131F81000C0F33E
:10A270000909A069484504D9A069A0EB0900A061BB
:10A2800001E00020A061A06920B921782846FDF7EF
:10A29000E2FE0FE0606948446061E0694844E061C3
:10A2A0002146286801F051FF04E032462146284645
:10A2B000FEF726F82868B0F8440000F400400028B3
:10A2C0007FF490ADBDE8F09F7047000000BF0749E4
:10A2D0000968016000BF0549091D0968416000BFA8
:10A2E000024908310968816070470000E8F7FF1FE4
:10A2F000704710B5FDF798FD10BD000010B50220A5
:10A300006149096821F0070101435F4A116000BFFC
:10A3100000BF00BF5C48006800F007000228F8D1C9
:10A3200000BF5A48006840F480305849086000BFB8
:10A3300000BF00BF55480068C0F340400028F8D077
:10A3400000BF5248406A40F001005049486200BFD7
:10A3500000BF00BF4D48406AC0F340000028F8D05D
:10A3600000BF4B48006840F480704949086000BF56
:10A3700000BF4648006A00F44070B0F5007F17D077
:10A3800000BF4248006A40F480304049086200BF84
:10A3900000BF0846006A20F48030086200BF4815FC
:10A3A000096A21F440710143384A116200BF00BFBD
:10A3B00000BF3648006A40F400403449086200BFDC
:10A3C0004FF480304FF4E011304A526822F47C128E
:10A3D00000F440330B431A432C4B5A6000BF00BFBC
:10A3E0001846006840F080701946086000BF00BF42
:10A3F00000BF26480068C0F340600028F8D0002065
:10A400002249496821F0F0010143204A516000BF10
:10A4100010151146496821F4E0610143516000BF05
:10A4200000201146496821F460510143516000BF8A
:10A4300002201146496821F003010143516000BF29
:10A4400000BF00BF1148406800F00C000828F8D198
:10A450001048FFF73DF80F20FDF706FD08B1FDF7A6
:10A460008CF94FF400400949496821F44041014307
:10A47000064A516000BF00201146496821F480015E
:10A480000143516000BF10BD002002400010024097
:10A490000070004000A24A047047000000BF4FF067
:10A4A0008040006900F0010058B100BF6FF001006A
:10A4B0004FF08041086100BF02480068401C01491C
:10A4C00008607047100000202DE9F04104460D4659
:10A4D000D4F8B862D4F8C072D4F8B80278B305EBF7
:10A4E000850104F1140000EB8100806808B305EBDE
:10A4F000850104F1140000EB810005EB8502816801
:10A5000007F1100000EBC2000069B1FBF0F200FBA4
:10A51000121070B9002105EB850204F1140000EB64
:10A520008200816000231A462946204600F0FDFE85
:10A5300002E00020C6F814020020BDE8F081FFE729
:10A540000220FAE770B504460E46D4F8B8523146F8
:10A55000204600F07FFDC5F80C02D4F8B80248B1DF
:10A56000D5F80402D4F8BC12CA6805F50371904707
:10A57000002070BD0220FCE770B504460E460025A1
:10A580008121204600F071FC0021E162012120467A
:10A5900000F06BFC0021C4F86C118221204600F011
:10A5A00064FC00212164D4F8B80250B1D4F8BC1284
:10A5B00048688047D4F8B80201F06CF90020C4F86C
:10A5C000B802284670BD70B50546D5F8B842D5F832
:10A5D000BC0278B194F80002FF280BD094F8012255
:10A5E00094F80002D5F8BC128B6821469847FF20EA
:10A5F00084F80002002070BD01460A20088001484E
:10A60000704700008C00002001464320088001486C
:10A6100070470000140100200146432008800148D3
:10A6200070470000D0000020014643200880014808
:10A6300070470000580100202DE9F04104460F4604
:10A640000026207C88B94FF4007302228121204625
:10A6500000F068FD0121E1624B020222204600F079
:10A6600061FD0121C4F86C110FE040230222812119
:10A67000204600F057FD0121E162402302222046DE
:10A6800000F050FD0121C4F86C110823032282213F
:10A69000204600F047FD012121644FF4077001F0CE
:10A6A000FBF8C4F8B802D4F8B80208B901261CE0D7
:10A6B000D4F8B852D4F8BC12086880470020C5F816
:10A6C0001402C5F81802207C40B94FF40073012130
:10A6D0002046D5F8042200F03DFD06E0402301218C
:10A6E0002046D5F8042200F035FD3046BDE8F08163
:10A6F00070B50446D4F8B852D4F8B80298B1207CAA
:10A7000040B94FF4007301212046D5F8042200F02F
:10A7100021FD06E0402301212046D5F8042200F067
:10A7200019FD002070BD0220FCE70246022011B195
:10A73000C2F8BC12002070470246D2F8B832C3F803
:10A7400004120020704710B50346D3F8B842C4F88D
:10A750000812C4F81022002010BD2DE9FC41054666
:10A760000C46D5F8B86200200190009000272078B0
:10A7700000F0600040B320285FD1E088E0B120788D
:10A7800000F0800060B1E2886078D5F8BC128B6878
:10A7900031469847E2883146284600F0E6F812E054
:10A7A000607886F80002A07986F80102E2883146D6
:10A7B000284600F0B9F806E06078D5F8BC1200220F
:10A7C0008B68214698473EE0607820B10A2812D075
:10A7D0000B282AD11FE095F89C02032805D10222FC
:10A7E0006946284600F0C1F804E02146284600F0FA
:10A7F0008FF802271FE095F89C02032805D101225B
:10A8000001A9284600F0B1F804E02146284600F0EE
:10A810007FF802270FE095F89C02032804D0214618
:10A82000284600F075F8022705E02146284600F08A
:10A830006FF8022700BF00BF05E02146284600F060
:10A8400067F8022700BF00BF3846BDE8FC8170B53D
:10A850000546D5F8B842D5F8B802A8B1D4F8140224
:10A8600080B90120C4F81402D4F810122963B4F896
:10A87000100283B281212846D4F8082200F055FD49
:10A88000002070BD0120FCE70220FAE770B5044605
:10A890000D46D4F8B402294642682046904700206D
:10A8A00070BD70B504460D4694F89C02012804D092
:10A8B000022803D003280CD101E000BF00BF688844
:10A8C000012805D10020C4F8A402204600F05EF85B
:10A8D00004E02946204600F01BF800BF00BF70BD11
:10A8E00070B506460C4615462B46224600213046DA
:10A8F00000F030FC002070BD70B506460C461546D1
:10A900002B4622460021304600F00FFD002070BD8E
:10A9100070B504460D468021204600F0CBFC002196
:10A92000204600F0C7FC70BD70B504460E461546C3
:10A930000320C4F894024FF4AE700551001D055178
:10A940002B4632460021204600F004FC002070BD5A
:10A9500010B504460520C4F8940200231A4619468F
:10A96000204600F0F7FB002010BD70B504460E46EF
:10A9700015460220C4F89402E56125622B46324652
:10A980000021204600F0D1FC002070BD10B5044627
:10A990000420C4F8940200231A461946204600F009
:10A9A000C4FC002010BD10B50446012084F89C02B0
:10A9B0002179D4F8B402426820469047204600F03E
:10A9C0009BFC204600F037FB002010BD70B505460B
:10A9D0000C462DB92246064906A000F0DBF904E03A
:10A9E0002246034903A000F0D5F9014870BD0000DC
:10A9F0001C05002043444320436F6E6669670000D6
:10AA000002461220088001487047000034000020F0
:10AA100070B505460C462DB92246064906A000F041
:10AA2000B9F904E02246034903A000F0B3F9014854
:10AA300070BD00001C05002043444320496E74652E
:10AA400072666163650000000246042008800148C8
:10AA5000704700004800002070B505460C462246AD
:10AA6000024903A000F096F9004870BD1C050020C3
:10AA700053544D6963726F656C656374726F6E6970
:10AA80006373000070B505460C462DB92246064991
:10AA900006A000F07FF904E02246034903A000F07D
:10AAA00079F9014870BD00001C05002053544D3356
:10AAB00032205669727475616C20436F6D506F72ED
:10AAC0007400000070B505460C461A202080FCF783
:10AAD00057FE014870BD00004C00002070B50446D0
:10AAE0000D46E888012804D029462046FFF710FFCC
:10AAF0001EE094F89C02012804D0022803D0032809
:10AB000010D109E000BF0020A060012204F108017B
:10AB10002046FFF72AFF0AE00122211D2046FFF709
:10AB200024FF04E029462046FFF7F2FE00BF00BFE5
:10AB300070BDF8B504460E460020009000270025A1
:10AB400070880012082875D2DFE800F0C7040C20D6
:10AB5000C7C7A5B5207CD4F8B0120A6869469047EB
:10AB60000746C1E0207C40B9D4F8B402816A684647
:10AB7000884707460220787007E0D4F8B402C16A1B
:10AB800068468847074602207870ADE0B07806280E
:10AB900078D2DFE800F00316293C5063D4F8B00205
:10ABA000406838B1207CD4F8B0124A6869469047B2
:10ABB000074605E031462046FFF7AAFE681CC5B2ED
:10ABC00067E0D4F8B002806838B1207CD4F8B012C5
:10ABD0008A6869469047074605E031462046FFF7F8
:10ABE00097FE681CC5B254E0D4F8B002C06838B112
:10ABF000207CD4F8B012CA6869469047074605E041
:10AC000031462046FFF784FE681CC5B241E0D4F807
:10AC1000B002006938B1207CD4F8B0120A696946E4
:10AC20009047074605E031462046FFF771FE681C55
:10AC3000C5B22EE051E0D4F8B002406938B1207CB2
:10AC4000D4F8B0124A6969469047074605E0314694
:10AC50002046FFF75DFE681CC5B21AE0D4F8B002CA
:10AC6000806940B1207CD4F8B0128A696946904767
:10AC7000074606E006E031462046FFF749FE681C1D
:10AC8000C5B206E031462046FFF742FE681CC5B259
:10AC900000BF00BF28E0207C30B9D4F8B402416B7B
:10ACA00068468847074605E031462046FFF730FEF4
:10ACB000681CC5B218E0207C40B9D4F8B402016B1E
:10ACC0006846884707460720787005E031462046E9
:10ACD000FFF71EFE681CC5B206E031462046FFF7AE
:10ACE00017FE681CC5B200BF00BF05B1F8BDBDF8B6
:10ACF000000088B1F08878B1F088BDF80010884273
:10AD000002DDBDF8000000E0F0880090BDF80020F2
:10AD100039462046FFF729FEF08810B92046FFF794
:10AD200035FE00BFE2E70146002002E0421CD0B23F
:10AD3000491C0A78002AF9D1704770B504460D46BF
:10AD400094F89C02012804D0022803D003281AD1C9
:10AD500001E000BF00BFE888022804D02946204651
:10AD6000FFF7D6FD14E00120E060D4F8A40218B18A
:10AD7000E06840F00200E060022204F10C0120468D
:10AD8000FFF7F3FD04E029462046FFF7C1FD00BFB1
:10AD900000BF70BD2DE9F04104460D461746002660
:10ADA000FCB12046FFF7BFFF022101EB40003880D5
:10ADB0003A783046711CCEB22A5403223046711CB8
:10ADC000CEB22A540AE014F8012B3046711CCEB2E0
:10ADD0002A5400223046711CCEB22A542078002812
:10ADE000F1D1BDE8F0810146002031B1012906D042
:10ADF000022906D0032908D105E0002007E002203F
:10AE000005E0012003E0022001E0022000BF00BFB6
:10AE1000704770B504460D4616460CB9022070BD49
:10AE2000D4F8B40210B10020C4F8B4020DB1C4F8D3
:10AE3000B052012084F89C022670204600F014F9DC
:10AE40000020ECE72DE9F04104460D4600260027DE
:10AE50002946D4F8C002FDF769F906463046FFF7E7
:10AE6000C2FF07463846BDE8F0812DE9F0410446AF
:10AE70000D46002600272946D4F8C002FDF721F927
:10AE800006463046FFF7AFFF07463846BDE8F0817B
:10AE90002DE9F04104460E461746002E64D104F118
:10AEA0001405D4F89402022848D1D5E90301884258
:10AEB00010D9D5E90301401AE860A88982B2394661
:10AEC0002046FFF719FD00231A461946204600F0D8
:10AED00041F93EE02969A868B0FBF1F201FB1200DC
:10AEE000B8B92969A868884213D3A868D4F8981219
:10AEF00088420ED2002211462046FFF7FDFC0020BA
:10AF0000C4F8980200231A461946204600F022F998
:10AF10001FE0D4F8B402C06840B194F89C02032842
:10AF200004D1D4F8B402C168204688478021204665
:10AF300000F0C0F92046FFF70BFD0AE0D4F89402B8
:10AF4000042802D0D4F8940218B98021204600F0D9
:10AF5000B1F994F8A002012818D1204600F019FA9E
:10AF6000002084F8A00211E0D4F8B402406950B186
:10AF700094F89C02032806D1D4F8B4023146426901
:10AF80002046904702E00220BDE8F0810020FBE768
:10AF90002DE9F04104460E461746BEBB04F5AA75DE
:10AFA000D4F89402032825D1D5E90301884210D9A9
:10AFB000D5E90301401AE860D5E90301884201D2CE
:10AFC000E86800E0286982B239462046FFF788FC2D
:10AFD0002FE0D4F8B402006940B194F89C02032831
:10AFE00004D1D4F8B4020169204688472046FFF70F
:10AFF000CDFC1EE0D4F8940205281AD10020C4F834
:10B0000094020021204600F055F912E0FFE7D4F841
:10B01000B402806950B194F89C02032806D1D4F898
:10B02000B402314682692046904702E00220BDE822
:10B03000F0810020FBE770B5044600250026D4F817
:10B04000C002FDF728F805462846FFF7CCFE064665
:10B05000304670BD70B504460D462946D4F8C0028E
:10B06000FDF7EDFB70BD000010B504461D48C0F8AB
:10B07000D442C4F8C0021C481A490860082008716C
:10B0800002211848817100218172C1720173FDF79C
:10B090008EFD08B1FCF771FB04F530741823002213
:10B0A00011462068FCF7B4FF582300228021206855
:10B0B000FCF7AEFFC023002281212068FCF7A8FF27
:10B0C0004FF48873002201212068FCF7A1FF20685B
:10B0D000A4F530744FF4807300228221FCF798FFAE
:10B0E000002010BD1C0F0020005C004010B502467F
:10B0F000D2F8C03201F08000802809D101F07F0031
:10B1000000EB800403F1100000EBC400807810BD58
:10B1100001F07F0000EB800403F5A87000EBC40091
:10B120008078F4E72DE9F04704460F4615461E46A1
:10B130004FF00008C1462B4632463946D4F8C002CB
:10B14000FDF788FB80464046FFF74DFE81464846A6
:10B15000BDE8F0872DE9F04704460D4616461F4628
:10B160004FF00008C1463B4632462946D4F8C0029B
:10B17000FDF7B2FB80464046FFF735FE8146484664
:10B18000BDE8F08710B50446402300221146204652
:10B19000FFF7C8FF01214FF4AC70015140214FF47B
:10B1A000B27001514023002280212046FFF7BAFFF0
:10B1B0000121A16140216162012084F89C020020EC
:10B1C000C4F894026060C4F8A402D4F8B80228B1AC
:10B1D0002179D4F8B402426820469047002010BD7F
:10B1E000014691F89C02042803D191F89D0281F850
:10B1F0009C020020704710B5044694F89C02032876
:10B2000008D1D4F8B402C06920B1D4F8B402C1693D
:10B2100020468847002010BD024611740020704768
:10B220002DE9F04104460D46002600272946D4F8B2
:10B23000C002FDF7B1FD06463046FFF7D4FD0746D4
:10B240003846BDE8F08170B504460D46294604F540
:10B250002A7000F082F80120C4F8940240F2AE2077
:10B26000005BC4F8980294F8A80200F01F0020B117
:10B27000012808D0022812D10BE004F52A712046DB
:10B2800000F04FF913E004F52A71204600F0B6FAF9
:10B290000DE004F52A71204600F094F907E094F8D7
:10B2A000A80200F08001204600F004F800BF00BFB3
:10B2B000002070BD2DE9F04104460D460026002710
:10B2C0002946D4F8C002FDF725FB06463046FFF7B5
:10B2D0008AFD07463846BDE8F08170B50446002572
:10B2E0000026D4F8C002FDF77AFD05462846FFF790
:10B2F0007AFD0646304670BD70B50446002500262E
:10B30000D4F8C002FDF789FD05462846FFF76BFD1E
:10B310000646304670BD014691F89C0281F89D02B8
:10B32000042081F89C02002070472DE9F047044674
:10B330000D4616461F464FF00008C1463B463246B2
:10B340002946D4F8C002FDF729FB80464046FFF7A6
:10B350004AFD81464846BDE8F0870A7802704A787F
:10B3600042708B78CA7803EB022242800B794A79CB
:10B3700003EB022282808B79CA7903EB0222C2801E
:10B3800070470246002011B1C2F8B41200E002205A
:10B39000704701460020704770B504460D46A888E6
:10B3A00010BBE88800BB688880281DD2A87800F010
:10B3B0007F0694F89C02032804D129462046FFF713
:10B3C000A7FA15E084F89E6231462046FFF728FF71
:10B3D0002046FFF7DBFA1EB1022084F89C0207E04A
:10B3E000012084F89C0203E029462046FFF790FAEA
:10B3F00070BD70B504460D460226D4F8B40238B1CB
:10B40000D4F8B402294602682046904700B90026C5
:10B41000304670BD70B504460D46A87836490870B0
:10B4200008460078012804DD29462046FFF770FA17
:10B4300060E094F89C02022802D003284FD11CE05F
:10B440002D480078A8B12C4800786060032084F86B
:10B450009C02294801782046FFF7CBFF022804D13F
:10B4600029462046FFF754FA70BD2046FFF78EFAB2
:10B4700002E02046FFF78AFA3BE01F48007870B9E7
:10B48000022084F89C021C48007860601A48017809
:10B490002046FFF7FBF92046FFF778FA1EE0164931
:10B4A00009786068884216D021792046FFF7EEF9C6
:10B4B000114800786060104801782046FFF799FF36
:10B4C000022804D129462046FFF722FACCE720467D
:10B4D000FFF75CFA02E02046FFF758FA09E0294638
:10B4E0002046FFF715FA044801782046FFF7CEF909
:10B4F00000BF00BF00BFB7E78800002070B5054659
:10B500000C466088012804D1C5F8A4022846FFF73C
:10B510003DFA70BD10B504462046FFF7DEFE002060
:10B5200010BD70B505460C460026207800F060007E
:10B5300060B1202802D040283CD100E000BFD5F8FF
:10B54000B402214682682846904738E060780A288D
:10B5500029D2DFE800F01923281E280A0528140F35
:10B5600021462846FFF7E5FA22E021462846FFF764
:10B5700013FF1DE021462846FFF74CFF18E0214647
:10B580002846FFF7ABFA13E021462846FFF7D5FB24
:10B590000EE021462846FFF7B1FF09E02146284684
:10B5A000FFF77FF904E021462846FFF7B1F900BF15
:10B5B00000BF04E021462846FFF7AAF900BF00BFFC
:10B5C000304670BD2DE9F04105460E464FF00008AB
:10B5D0003479307800F0600060B1202802D0402833
:10B5E00071D100E000BFD5F8B40231468268284628
:10B5F000904700E1307800F06000202809D1D5F8AC
:10B60000B402314682682846904780464046BDE8ED
:10B61000F081707800285ED001282FD0032876D1E1
:10B6200095F89C02022802D0032820D110E054B1E2
:10B63000802C08D021462846FFF73CFE8021284672
:10B64000FFF738FE03E031462846FFF761F913E0C3
:10B65000708840B93CB1802C05D0F08818B92146DB
:10B660002846FFF727FE2846FFF790F904E0314609
:10B670002846FFF74DF900BF00BFB5E095F89C02E2
:10B68000022802D003281FD110E054B1802C08D02A
:10B6900021462846FFF70EFE80212846FFF70AFEC6
:10B6A00003E031462846FFF733F912E0708848B9C5
:10B6B00004F07F0018B121462846FFF7C3FB284657
:10B6C000FFF764F905E091E031462846FFF720F9DD
:10B6D00000BF00BF88E095F89C02022802D0032832
:10B6E00076D126E034B1802C04D031462846FFF7CD
:10B6F0000FF972E004F08000802809D104F07F0087
:10B7000000EB800105F1140000EB810008E066E029
:10B7100004F07F0000EB800105F5AA7000EB8100CA
:10B72000074600203860022239462846FFF71DF9F7
:10B7300053E004F0800080280ED104F00F0000EBED
:10B74000800105F1140000EB8100406898B9314692
:10B750002846FFF7DDF840E004F00F0000EB800121
:10B7600005F5AA7000EB8100406820B931462846F3
:10B77000FFF7CEF831E004F08000802808D104F013
:10B780007F0000EB800105F1140000EB810007E071
:10B7900004F07F0000EB800105F5AA7000EB81004A
:10B7A00007460CB1802C02D10020386009E0214608
:10B7B0002846FFF79BFC10B10120386001E0002013
:10B7C0003860022239462846FFF7CFF805E0FFE748
:10B7D00031462846FFF79CF800BF00BF04E0314621
:10B7E0002846FFF795F800BF00BF04E03146284621
:10B7F000FFF78EF800BF00BF404608E770B505466A
:10B800000C460026207800F0600030B1202802D0DD
:10B8100040282AD100E000BF00BF95F89C02012813
:10B8200004D0022803D0032818D101E000BF00BFD4
:10B83000207901280DDCD5F8B4022146826828461B
:10B8400090470646E08840B93EB92846FFF79EF883
:10B8500003E021462846FFF75BF804E0214628462E
:10B86000FFF756F800BF00BF04E021462846FFF767
:10B870004FF800BF00BF002070BD10B5044621790D
:10B88000D4F8B4024268204690472046FFF734FDC2
:10B89000002010BD704700000146014870470000BD
:10B8A000F4110020F0B5024600260878400032F876
:10B8B000100048F68F1400EA0403C87830B101285C
:10B8C0000CD0022805D003280BD104E043F4007308
:10B8D00009E000BF07E043F4C06304E043F4806381
:10B8E00001E0012600BF00BF43F4004040F08000AB
:10B8F0000C78640022F8140000BF0C78640032F861
:10B90000144048F68F752C400D7844EA050040F449
:10B91000004444F080040D786D0022F8154000BF0B
:10B92000087B00287ED14878002852D000BF1046FE
:10B93000B2F8505028440D7800F5806707EB0514E5
:10B94000CD886D106D00258000BF00BF0C786400AD
:10B9500032F8140000F040048CB100BF0D786D0087
:10B9600032F8155048F68F7705EA070444F400458D
:10B9700045F0C0050F787F0022F8175000BF00BFC8
:10B98000C878012813D000BF0C78640032F8144046
:10B9900048F6BF7504EA050080F0200040F400443A
:10B9A00044F080040D786D0022F81540D0E100BF0E
:10B9B0000C78640032F8144048F6BF7504EA0500BC
:10B9C00040F4004444F080040D786D0022F81540E6
:10B9D000BEE100BF1046B2F8505028440D7804274D
:10B9E00007EBC50500F5806707EB4504CD886D10B2
:10B9F0006D00258000BF00BF1546B2F850402544B9
:10BA00000C78062707EBC40405F5806707EB4404B0
:10BA1000204600BF0788C7F3090707800F693E2F3C
:10BA200014D900E073E000BF0F697C090F7C07F0B8
:10BA30001F0707B9641E07884FF4004C4CEA842C9A
:10BA40001FFA8CFC47EA0C07078017E00F6927B93B
:10BA5000078847F40047078010E000BF0F697C08A3
:10BA60000F7C07F0010707B1641C07884FF6FF7CC5
:10BA70000CEA842C47EA0C07078000BF00BF00BF18
:10BA800000BF0C78640032F8140000F480448CB1DC
:10BA900000BF0D786D0032F8155048F68F7705EA33
:10BAA000070444F4004545F481450F787F0022F8EF
:10BAB000175000BF00BF0878A8B900BF0C78640019
:10BAC00032F814404BF68F7504EA050080F480507C
:10BAD00080F4005040F4004444F080040D786D0080
:10BAE00022F8154034E100BF0C78640032F81440AD
:10BAF0004BF68F7504EA050080F4005040F40044D2
:10BB000044F080040D786D0022F8154020E1C878DB
:10BB1000022811D100BF0C78640032F8144048F6B6
:10BB20008F7504EA050040F4004444F4C0740D78B5
:10BB30006D0022F8154011E000BF0C78640032F867
:10BB4000144048F68F6504EA050040F4004444F0D0
:10BB500080040D786D0022F8154000BF00BF00BFC3
:10BB600000BF1046B2F8505028440D7800F58067A9
:10BB700007EB05140D896D106D00258000BF00BF17
:10BB800000BF00BF1046B2F8505028440D7804277B
:10BB900007EBC50500F5806707EB45044D896D107F
:10BBA0006D00258000BF00BF00BF4878E8BB00BF24
:10BBB0000C78640032F8140000F480448CB100BFAB
:10BBC0000D786D0032F8155048F68F7705EA0704B6
:10BBD00044F4004545F481450F787F0022F8175062
:10BBE00000BF00BF00BF0C78640032F8140000F002
:10BBF00040048CB100BF0D786D0032F8155048F646
:10BC00008F7705EA070444F4004545F0C0050F7836
:10BC10007F0022F8175000BF00BF00BF0C786400FF
:10BC200032F814404BF68F7500E020E004EA05007E
:10BC300080F4805080F4005040F4004444F08004CC
:10BC40000D786D0022F8154000BF00BF0C7864002D
:10BC500032F8144048F6BF7504EA050040F4004489
:10BC600044F080040D786D0022F8154070E000BFAC
:10BC70000C78640032F8140000F480448CB100BFEA
:10BC80000D786D0032F8155048F68F7705EA0704F5
:10BC900044F4004545F481450F787F0022F81750A1
:10BCA00000BF00BF00BF0C78640032F8140000F041
:10BCB00040048CB100BF0D786D0032F8155048F685
:10BCC0008F7705EA070444F4004545F0C0050F7876
:10BCD0007F0022F8175000BF00BFC878012813D09A
:10BCE00000BF0C78640032F8144048F6BF7504EACF
:10BCF000050080F0200040F4004444F080040D78FA
:10BD00006D0022F8154011E000BF0C78640032F895
:10BD1000144048F6BF7504EA050040F4004444F0BE
:10BD200080040D786D0022F8154000BF00BF0C782C
:10BD3000640032F814404BF68F7504EA050040F4B5
:10BD4000004444F080040D786D0022F8154000BFD7
:10BD50003046F0BD10B50446002010BD30B5024697
:10BD6000087B00285BD1487860B300BF0B785B008C
:10BD700032F8130000F040038BB100BF0C78640070
:10BD800032F8144048F68F7504EA050343F4004482
:10BD900044F0C0040D786D0022F8154000BF00BFCC
:10BDA00000BF0B785B0032F8133048F6BF7403EA2B
:10BDB000040040F4004343F080030C78640022F850
:10BDC000143007E100BF0B785B0032F8130000F479
:10BDD00080438BB100BF0C78640032F8144048F601
:10BDE0008F7504EA050343F4004444F481440D785C
:10BDF0006D0022F8154000BF00BF00BF0B785B004C
:10BE000032F813304BF68F7403EA040040F4004319
:10BE100043F080030C78640022F81430DAE04878AC
:10BE200000286BD100BF0B785B0032F8130000F4E0
:10BE300080438BB100BF0C78640032F8144048F6A0
:10BE40008F7504EA050343F4004444F481440D78FB
:10BE50006D0022F8154000BF00BF00BF0B785B00EB
:10BE600032F8130000F040038BB100BF0C7864007F
:10BE700032F8144048F68F7504EA050343F4004491
:10BE800044F0C0040D786D0022F8154000BF00BFDB
:10BE900000BF0B785B0032F8133048F68F7403EA6A
:10BEA000040040F4004343F0C0030C78640022F81F
:10BEB000143000BF00BF0B785B0032F813304BF634
:10BEC0008F7403EA040040F4004343F080030C78CD
:10BED000640022F8143000BF00BF0B785B0032F81A
:10BEE000133048F6BF7403EA040040F4004343F003
:10BEF00080030C78640022F814306BE000BF0B78EC
:10BF00005B0032F8130000F480438BB100BF0C7863
:10BF1000640032F8144048F68F7504EA050343F4D0
:10BF2000004444F481440D786D0022F8154000BFB0
:10BF300000BF00BF0B785B0032F8130000F0400335
:10BF40008BB100BF0C78640032F8144048F68F754E
:10BF500004EA050343F4004444F0C0040D786D0086
:10BF600022F8154000BF00BF00BF0B785B0032F81D
:10BF7000133048F68F7403EA040040F4004343F49E
:10BF800081430C78640022F8143000BF00BF0B78A6
:10BF90005B0032F8133048F6BF7403EA040040F443
:10BFA000004343F080030C78640022F8143000BF93
:10BFB00000BF0B785B0032F813304BF68F7403EA46
:10BFC000040040F4004343F080030C78640022F83E
:10BFD000143000BF002030BD0146002070470146EC
:10BFE0000020704710B50446012024F8400F0020BF
:10BFF0002080A0802082403C10BD01464FF43F428B
:10C00000B1F840009043A1F840000020704702467C
:10C010000020704730B50246087B002865D148787B
:10C0200088B300BF0B785B0032F8130000F04003C8
:10C030008BB100BF0C78640032F8144048F68F755D
:10C0400004EA050343F4004444F0C0040D786D0095
:10C0500022F8154000BF00BFC878012845D000BFB6
:10C060000B785B0032F8133048F6BF7403EA040023
:10C0700080F0200040F4004343F080030C7864001B
:10C0800022F8143031E0FFE700BF0B785B0032F894
:10C09000130000F480438BB100BF0C78640032F8C9
:10C0A000144048F68F7504EA050343F4004444F451
:10C0B00081440D786D0022F8154000BF00BF00BF1D
:10C0C0000B785B0032F813304BF68F7403EA0400F0
:10C0D00080F4805080F4005040F4004343F080032B
:10C0E0000C78640022F8143000BF002030BD10B579
:10C0F0000246487898B100BF0B785B0032F81330E5
:10C1000048F6BF7403EA040080F0100040F40043D6
:10C1100043F080030C78640022F8143013E000BF71
:10C120000B785B0032F813304BF68F7403EA04008F
:10C1300080F4805040F4004343F080030C786400A6
:10C1400022F8143000BF002010BD2DE9F04706464C
:10C150000C466078012872D12169A069884201D912
:10C16000256900E0A569207BA0B9ABB2E288304622
:10C17000616900F061FD00BF3046B6F85020104400
:10C180002278022303EBC20200F5806303EB420135
:10C190000D80C1E2E078022870D12169206A8842CE
:10C1A0006DD900BF2178490036F8111048F68F721A
:10C1B00001EA020040F4004141F4C07122785200CB
:10C1C00026F8121000BF206A401B20622078400031
:10C1D00036F8100000F04000002874D000BF33464D
:10C1E000607868BB00BF3246B6F850100A44217828
:10C1F0004FF0060909EBC10102F5806909EB410125
:10C20000084600BFB0F80090C9F30909A0F80090F3
:10C210003E2D16D900BF690905F01F09B9F1000FBD
:10C2200000D1491EB0F800904FF4004A4AEA812A32
:10C230001FFA8AFA49EA0A09A0F800901CE081E294
:10C240001EE035B9B0F8009049F40049A0F800901C
:10C2500012E000BF690805F00109B9F1000F00D034
:10C26000491CB0F800904FF6FF7A0AEA812A49EAA1
:10C270000A09A0F8009000BF00BF11E07EE153E181
:10C28000607801280CD1B6F85000034420780621CC
:10C2900001EBC00003F5806101EB400CACF80050ED
:10C2A00000BF6789ABB23A463046616900F0C4FC12
:10C2B0006069284460612169206A884204D9206A43
:10C2C000401B206203E05EE0256A0020206200BF80
:10C2D0006078E0BB00BF3246B6F850100A442178BF
:10C2E000022303EBC10102F5806303EB4101084621
:10C2F00000BF0388C3F3090303803E2D10D900BF9C
:10C30000690905F01F0303B9491E03884FF4004C67
:10C310004CEA812C1FFA8CFC43EA0C03038014E0E6
:10C3200025B9038843F4004303800EE000BF690889
:10C3300005F0010303B1491C03884FF6FF7C0CEAAA
:10C34000812C43EA0C03038000BF00BF12E0FFE72B
:10C35000607801280ED100BF3046B6F85020104456
:10C360002278022303EBC20200F5806303EB420153
:10C370000D8000BF00BF2789ABB23A4630466169E5
:10C3800000F05AFCC8E100BF6078E0BB00BF324655
:10C39000B6F850100A442178022303EBC10102F5DC
:10C3A000806303EB4101084600BF0388C3F3090320
:10C3B00003803E2D10D900BF690905F01F0303B9A2
:10C3C000491E03884FF4004C4CEA812C1FFA8CFC68
:10C3D00043EA0C03038014E025B9038843F40043C7
:10C3E00003800EE000BF690805F0010303B1491C9A
:10C3F00003884FF6FF7C0CEA812C43EA0C03038090
:10C4000000BF00BF12E0FFE7607801280ED100BF37
:10C410003046B6F8502010442278022303EBC202C3
:10C4200000F5806303EB42010D8000BF00BF278948
:10C43000ABB23A463046616900F0FEFB60692844C1
:10C4400060612169206A884203D9206A401B20620A
:10C4500002E0256A0020206200BF33466078A0BB5E
:10C4600000BF3246B6F850100A4421784FF0060952
:10C4700009EBC10102F5806909EB4101084600BFE3
:10C48000B0F80090C9F30909A0F800903E2D14D926
:10C4900000BF690905F01F09B9F1000F00D1491E5D
:10C4A000B0F800904FF4004A4AEA812A1FFA8AFA4B
:10C4B00049EA0A09A0F800901BE03DB9B0F80090E5
:10C4C00049F40049A0F8009013E014E000BF6908A7
:10C4D00005F00109B9F1000F00D0491CB0F8009037
:10C4E0004FF6FF7A0AEA812A49EA0A09A0F8009081
:10C4F00000BF00BF0FE0607801280CD1B6F85000F3
:10C5000003442078062101EBC00003F5806101EBB4
:10C51000400CACF8005000BF6789ABB23A463046D9
:10C52000616900F089FBF7E0256A00BF21784900C6
:10C5300036F8111048F68F6201EA020040F400411B
:10C5400041F080012278520026F8121000BF00BF8F
:10C550003046B6F8502010442278022303EBC20282
:10C5600000F5806303EB42010D8000BF2789ABB269
:10C570003A463046616900F05FFBCDE0206A401B1F
:10C5800020622078400036F8100000F0400080B3B0
:10C5900000BF3346607868BB00BF3246B6F8501023
:10C5A0000A4421784FF0060909EBC10102F58069C0
:10C5B00009EB4101084600BFB0F80090C9F3090932
:10C5C000A0F800903E2D16D900BF690905F01F099B
:10C5D000B9F1000F00D1491EB0F800904FF4004AA5
:10C5E0004AEA812A1FFA8AFA49EA0A09A0F8009061
:10C5F0001CE036E01CE035B9B0F8009049F4004981
:10C60000A0F8009012E000BF690805F00109B9F137
:10C61000000F00D0491CB0F800904FF6FF7A0AEAEC
:10C62000812A49EA0A09A0F8009000BF00BF0FE084
:10C63000607801280CD1B6F8500003442078062118
:10C6400001EBC00003F5806101EB400CACF8005039
:10C6500000BF6789ABB23A463046616900F0ECFA38
:10C660005AE000BF6078E0BB00BF3246B6F8501019
:10C670000A442178022303EBC10102F5806303EB36
:10C680004101084600BF0388C3F3090303803E2D20
:10C6900010D900BF690905F01F0303B9491E0388BB
:10C6A0004FF4004C4CEA812C1FFA8CFC43EA0C033B
:10C6B000038014E025B9038843F4004303800EE0AF
:10C6C00000BF690805F0010303B1491C03884FF658
:10C6D000FF7C0CEA812C43EA0C03038000BF00BFFF
:10C6E00012E0FFE7607801280ED100BF3046B6F8AF
:10C6F000502010442278022303EBC20200F580632D
:10C7000003EB42010D8000BF00BF2789ABB23A4660
:10C710003046616900F090FA00BF2178490036F890
:10C72000111048F6BF7201EA020080F0100080F09C
:10C73000200040F4004141F080012278520026F8A8
:10C74000121028E2207B88BB2169A069884204D9A5
:10C750002569A069401BA06102E0A5690020A061D5
:10C7600000BF3246B6F850100A442178062303EB86
:10C77000C10102F5806303EB4101084600BF038855
:10C78000C3F3090303803E2D11D900BF690905F0E9
:10C790001F0303B9491E03884FF4004C4CEA812C57
:10C7A0001FFA8CFC43EA0C03038015E016E025B960
:10C7B000038843F4004303800EE000BF690805F0DE
:10C7C000010303B1491C03884FF6FF7C0CEA812C5E
:10C7D00043EA0C03038000BF00BFC6E1E0780228F3
:10C7E0007CD100BF00BF607878BB00BF3246B6F88E
:10C7F00050100A442178022303EBC10102F5806343
:10C8000003EB4101084600BF0388C3F3090303801B
:10C8100023693E2B12D900BF23695909237C03F0F9
:10C820001F0303B9491E03884FF4004C4CEA812CC6
:10C830001FFA8CFC43EA0C03038018E023692BB930
:10C84000038843F40043038011E012E000BF236932
:10C850005908237C03F0010303B1491C03884FF6F8
:10C86000FF7C0CEA812C43EA0C03038000BF00BF6D
:10C8700012E0607801280FD100BF3046B6F8502092
:10C8800010442278022303EBC20200F5806303EB1D
:10C890004201228A0A8000BF00BF00BF3346607891
:10C8A000B0BB00BF3246B6F850100A4421784FF0B2
:10C8B000060909EBC10102F5806909EB410108464F
:10C8C00000BFB0F80090C9F30909A0F80090D4F8AF
:10C8D0001090B9F13E0F1CD900BF00E07BE0D4F806
:10C8E00010904FEA591194F8109009F01F09B9F10E
:10C8F000000F00D1491EB0F800904FF4004A4AEAF8
:10C90000812A1FFA8AFA49EA0A09A0F8009024E06D
:10C9100025E0D4F81090B9F1000F06D1B0F80090DE
:10C9200049F40049A0F8009017E000BFD4F8109037
:10C930004FEA590194F8109009F00109B9F1000F7C
:10C9400000D0491CB0F800904FF6FF7A0AEA812A1D
:10C9500049EA0A09A0F8009000BF00BF10E0607823
:10C9600001280DD1B6F8500003442078062101EBD0
:10C97000C00003F5806101EB400C208AACF8000098
:10C9800000BF00BFE069002824D02078400036F8BE
:10C99000108008F4804010B108F0400038B908F465
:10C9A0008040002816D108F04000002812D100BFB6
:10C9B00000BF2178490036F8111048F68F7201EA5D
:10C9C000020040F4004141F0C0012278520026F8F4
:10C9D000121000BFC9E0E07801287ED12169A0696A
:10C9E000884204D92569A069401BA06102E0A569BD
:10C9F0000020A06100BF00BF6078E0BB00BF3246EE
:10CA0000B6F850100A442178022303EBC10102F565
:10CA1000806303EB4101084600BF0388C3F30903A9
:10CA200003803E2D10D900BF690905F01F0303B92B
:10CA3000491E03884FF4004C4CEA812C1FFA8CFCF1
:10CA400043EA0C03038014E025B9038843F4004350
:10CA500003800EE000BF690805F0010303B1491C23
:10CA600003884FF6FF7C0CEA812C43EA0C03038019
:10CA700000BF00BF12E0FFE7607801280ED100BFC1
:10CA80003046B6F8502010442278022303EBC2024D
:10CA900000F5806303EB42010D8000BF00BF00BFC3
:10CAA0003346607870BB00BF3246B6F850100A4477
:10CAB00021784FF0060909EBC10102F5806909EB05
:10CAC0004101084600BFB0F80090C9F30909A0F879
:10CAD00000903E2D17D900BF00E043E0690905F042
